:0400000067EF00F0B6
:100018004980D8CF03F0E8CF04F0E0CF05F0FACF5D
:1000280006F0FBCF07F0E9CF08F0EACF09F0E1CFFF
:100038000AF0E2CF0BF0D9CF0CF0DACF0DF0F3CF06
:100048000EF0F4CF0FF0F6CF10F0F7CF11F0F8CF95
:1000580012F0F5CF13F03306D8A034062F4A302A11
:10006800F2A40DD034BE04D0345004E13304D8A037
:10007800A0EC0AF0000ED76E000ED66EF29413C0F4
:10008800F5FF12C0F8FF11C0F7FF10C0F6FF0FC050
:10009800F4FF0EC0F3FF0DC0DAFF0CC0D9FF0BC090
:1000A800E2FF0AC0E1FF09C0EAFF08C0E9FF07C094
:1000B800FBFF06C0FAFF05C0E0FF04C0E8FF03C06D
:0A00C800D8FF49901000FFEF0BF085
:100800000001000800400000020010008001000A02
:10081000006400E803102701001000000100102010
:100820002020202020202A2A2A20202020202020AA
:100830000020202D2D2D2053434F5245202D2D2DAE
:10084000202000202D2D2D20496E207465737420EA
:100850002D2D2D20002D2D20507265737320537483
:10086000617274202D2D00303132333435363738F3
:10087000394142434445460030313233343536370E
:100880003839616263646566002053454D415048C4
:100890004F524520544553542000204572726F72C8
:1008A000733A256420004163657274733A256420AD
:0908B00000286E756C6C29000033
:1008BA00240E00016B6F000E00016C6F51EF09F0FE
:1008CA00250E00017219D8B40AD020C0D9FF21C060
:1008DA00DAFF72C0DFFF204A212A51EF09F0000E29
:1008EA000001716F000E706F000E0001746F000E30
:1008FA00736F0DD00001738708D00001738105D092
:10090A000001748702D000017385224A232A22C07B
:10091A00F6FF23C0F7FF0800F550200AD8B4EDD738
:10092A00030AD8B4EDD70E0AD8B4E4D71D0AD8B44E
:10093A00EAD7000173A702D00001739522C0F6FF1F
:10094A0023C0F7FF0800F550F0EC0BF0D8A036D022
:10095A00000E0001716F000E706F70C014F071C04C
:10096A0015F0000E176E0A0E166EBDEC0BF014C0D1
:10097A0070F015C071F0D00E2A6EFF0E2B6E22C0D9
:10098A00F6FF23C0F7FF0800F5502C6E2D6A2A5097
:10099A002C262B502D222C50000170272D5000019F
:1009AA007123224A232A22C0F6FF23C0F7FF080038
:1009BA00F550F0EC0BF0D8A019D0CFD722C0F6FF33
:1009CA0023C0F7FF0800F5502A0AD8A40FD06BC03D
:1009DA00D9FF6CC0DAFFDECF70F0DDCF71F0020E06
:1009EA0000016B27000E6C23224A232A22C0F6FF3D
:1009FA0023C0F7FF0800F5502E0AD8A43CD0000106
:100A0A00748D224A232A22C0F6FF23C0F7FF08006A
:100A1A00F5502A0AD8A40FD06BC0D9FF6CC0DAFFF0
:100A2A00DF5000016F6F020E00016B27000E6C236E
:100A3A00224A232A0FD1000E00016F6F11D022C063
:100A4A00F6FF23C0F7FF0800F5CF2AF000016F5127
:100A5A000A0DF3502A24D00F00016F6F224A232A6D
:100A6A0022C0F6FF23C0F7FF0800F550F0EC0BF0A8
:100A7A00D8A0F0D0E4D7000E00016F6FEBD00001D0
:100A8A00738D12D10001748B0001738B0001738F77
:100A9A000BD16BC0D9FF6CC0DAFFDECF67F0DDCFB8
:100AAA0068F0020E00016B27000E6C2300016751EB
:100ABA0000016811D8A406D0B10E0001676F080EB4
:100ACA000001686F000E00016A6F000E696F03D0A3
:100ADA000001694B6A2B00016951000167252A6EE2
:100AEA0000016A51000168212B6E2AC0F6FF2BC053
:100AFA00F7FFF86A070EF76403D00800F55005D02F
:100B0A00F6CFE9FFF7CFEAFFEF500009D8A4E0D704
:100B1A0000016F510001D8B414D06FC02AF02B6ABB
:100B2A002ABE2B06000169512A5C00016A512B5822
:100B3A00D8B007D000016F510001696F6A6B69BFB5
:100B4A006A07000170510001695D000171510001DD
:100B5A006A59D8B009D0000169510001705F0001DB
:100B6A006A510001715B05D0000E0001716F000E21
:100B7A00706F000173A709D02ED020C0D9FF21C001
:100B8A00DAFF200EDF6E204A212A00017007D8A062
:100B9A00710700017029F1E100017129D8B41BD055
:100BAA00ECD767C0F6FF68C0F7FFF86A20C0D9FF24
:100BBA0021C0DAFF070EF76403D00800F55005D00C
:100BCA00F6CFE9FFF7CFEAFFEF50DF6E0001674B80
:100BDA00682B204A212A00016907D8A06A07000168
:100BEA006929DFE100016A29D8A4DBD7000173B7BC
:100BFA0009D052D320C0D9FF21C0DAFF200EDF6E00
:100C0A00204A212A00017007D8A071070001702923
:100C1A00F1E100017129D8B43FD3ECD76BC0D9FFF9
:100C2A006CC0DAFFDF500001726F020E00016B2701
:100C3A00000E6C23720E0001676F000E0001686FD0
:100C4A00000E00016A6F010E696F62D7C00E0001C3
:100C5A0073132AD022C0F6FF23C0F7FF224A232AA1
:100C6A000800F5CF72F000017251000AD8B422D3FD
:100C7A00580AD8B409D73B0AD8B4D0D7070AD8B487
:100C8A0013D00D0AD8B410D0060AD8B4F8D61F0A61
:100C9A00D8B4F8D6030AD8B4FCD6060AD8B4D6D73C
:100CAA000D0AD8B4F3D6C6D7C00E000173152A6E42
:100CBA00000E000174152B6E2A502B10D8A419D0DF
:100CCA006BC0D9FF6CC0DAFFDECF6DF0DDCF6EF0FE
:100CDA00020E00016B27000E6C2300016EAF16D0C6
:100CEA00030E0001731300016D6D6E1FD8B06E2BD9
:100CFA000DD06BC0D9FF6CC0DAFFDECF6DF0DDCF4F
:100D0A006EF0020E00016B27000E6C2300016F517A
:100D1A000001D8A463D000016D5100016E11D8A45E
:100D2A005DD000016F2B5AD0010E0001726F050EC3
:100D3A0000017219D8B461D000017251020D0D0E72
:100D4A00F324F66E080EF420F76E0900F550000140
:100D5A006D5D0900F55000016E59D8A04ED0000112
:100D6A00722BE5D7010E0001726F040E0001721991
:100D7A00D8B443D000017251020D170EF324F66E57
:100D8A00080EF420F76E0900F55000016D5D0900A8
:100D9A00F55000016E59D8A030D00001722BE5D76A
:100DAA00010E0001726F060E00017219D8B425D027
:100DBA0000017251020D010EF324F66E080EF420A2
:100DCA00F76E0900F55000016D5D0900F55000014C
:100DDA006E59D8A012D00001722BE5D700017351C9
:100DEA00C00B000AD8B4A0D7400AD8B4D9D7C00AD1
:100DFA00D8B4B8D7400AD8B497D700017251800A3C
:100E0A002A6E00016F51800A2A5CD8B003D06FC0E5
:100E1A0072F00BD000016F51800A2A6E00017251E4
:100E2A00800A2A5CD8A072C06FF0000170510001DC
:100E3A007111D8B410D0030E000173152A6E000E7A
:100E4A00000174152B6E2A502B10D8B404D000015F
:100E5A007007D8A07107000174AD1FD0800E000181
:100E6A006FBF7F0E2A6E0001705100016F5D000195
:100E7A007151800A2A58D8B00BD000016F51000175
:100E8A00705F000E00016FBFFF0E0001715B05D09D
:100E9A00000E0001716F000E706FC40E2A6E080EEC
:100EAA002B6E73C02CF074C02DF02A502C162B50C8
:100EBA002D16400E2C180FE1080E2D18D8A40BD0B1
:100ECA000001705100017111D8B42ED000017007D1
:100EDA00D8A0710729D0C00E2A6E080E2B6E73C0D7
:100EEA002CF074C02DF02A502C162B502D16800E83
:100EFA002C181AE1080E2D18D8A416D0000171BFBB
:100F0A000ED00001715105E1030E0001705DD8A0F9
:100F1A0006D00001FE0E7027FF0E712305D0000EC9
:100F2A000001716F000E706F800E000172BF7F0E9C
:100F3A002A6E000170510001725D00017151800A30
:100F4A002A58D8B00BD0000172510001705F000E10
:100F5A00000172BFFF0E0001715B05D0000E000197
:100F6A00716F000E706F000173A561D0030E00014E
:100F7A0073152A6E000E000174152B6E2A502B1061
:100F8A00D8B409D020C0D9FF21C0DAFF2D0E0BD06A
:100F9A00204A212A39D0000173A107D020C0D9FFE5
:100FAA0021C0DAFF200EDF6EF3D7C00E2A6E080EBC
:100FBA002B6E73C02CF074C02DF02A502C162B50B7
:100FCA002D16800E2C1820E1080E2D18D8A41CD03E
:100FDA0020C0D9FF21C0DAFF300EDF6E204A212A55
:100FEA00000173BB05D0000E0001626F780E04D0B9
:100FFA00000E0001626F580E616F20C0D9FF21C038
:10100A00DAFF61C0DFFFC4D700017051000171111E
:10101A00D8B41DD120C0D9FF21C0DAFF300EDF6E4F
:10102A00204A212A00017007D8A07107EDD70001D4
:10103A00705100017111D8B415D0000173B712D0E4
:10104A0020C0D9FF21C0DAFF200EDF6E204A212AF4
:10105A0000017007D8A071070001705100017111D9
:10106A00D8A4EED7030E000173152A6E000E0001F4
:10107A0074152B6E2A502B10D8B409D020C0D9FF72
:10108A0021C0DAFF2D0E0BD0204A212A0AD00001F6
:10109A0073A107D020C0D9FF21C0DAFF200EDF6E6E
:1010AA00F3D7C00E2A6E080E2B6E73C02CF074C0D4
:1010BA002DF02A502C162B502D16400E2C180BE111
:1010CA00080E2D18D8A407D020C0D9FF21C0DAFFF6
:1010DA00300EDF6EBAD0C00E2A6E080E2B6E73C0A9
:1010EA002CF074C02DF02A502C162B502D16800E81
:1010FA002C1803E1080E2D18D8A4A9D020C0D9FFB6
:10110A0021C0DAFF300EDF6E204A212A000173BBAC
:10111A0005D0000E0001646F780E04D0000E0001A5
:10112A00646F580E636F20C0D9FF21C0DAFF63C015
:10113A00DFFF8BD000016F51020D0D0EF324F66E06
:10114A00080EF420F76E0900F5CF16F00A00F5CF65
:10115A0017F06DC014F06EC015F0D8EC0AF014C088
:10116A001BF015C01CF0000E1E6E0A0E1D6E2AEC36
:10117A000BF01B5051D06DC014F06EC015F0000179
:10118A006F51020D170EF324F66E080EF420F76E57
:10119A000900F5CF16F00A00F5CF17F0D8EC0AF0DF
:1011AA0014500F0B0001606F000173BB05D0780E5D
:1011BA000001656F080E04D0670E0001656F080E06
:1011CA000001666F00016051010D65C02AF066C01A
:1011DA002BF0F3502A26F4502B222AC0F6FF2BC0FC
:1011EA00F7FF0800F5CF72F02AD06DC014F06EC078
:1011FA0015F000016F51020D010EF324F66E080E70
:10120A00F420F76E0900F5CF16F00A00F5CF17F0B3
:10121A00D8EC0AF01450070B300F0001726F0FD090
:10122A0000017351C00B000AD8B484D7400AD8B45D
:10123A00DCD7C00AD8B49FD7400AD8B47BD720C01D
:10124A00D9FF21C0DAFF72C0DFFF204A212A00013C
:10125A006F0700016F29D8A4E3D7000173A71CD038
:10126A00000171BF19D00001715104E1000170053C
:10127A00D8A012D020C0D9FF21C0DAFF200EDF6E1D
:10128A00204A212A00017007D8A071070001705175
:10129A0000017111D8A4EED722C0F6FF23C0F7FFD0
:1012AA00224A232A0800F5CF72F000017251D8A40D
:1012BA0065EF04F020C0D9FF21C0DAFF000EDF6E0F
:1012CA0012002E6E7FD0000E01EC0BF0370E206E4E
:1012DA00000E216E890E226E080E236E5DEC04F05C
:1012EA00370E166E000E176EA6EC0BF0400E01ECD0
:1012FA000BF0370E206E000E216E550E226E080E70
:10130A00236E5DEC04F0370E166E000E176EA6EC17
:10131A000BF01200000E01EC0BF0370E206E000EDF
:10132A00216E430E226E080E236E5DEC04F0370E1A
:10133A00166E000E176EA6EC0BF0400E01EC0BF0C9
:10134A00370E206E000E216E1F0E226E080E236EBF
:10135A005DEC04F0370E166E000E176EA6EC0BF05D
:10136A001200000E01EC0BF0370E206E000E216EFB
:10137A00310E226E080E236E5DEC04F0370E166EE7
:10138A00000E176EA6EC0BF0400E01EC0BF0370EB8
:10139A00206E000E216EA60E226E080E236E36C037
:1013AA0024F0256A9A0E266E080E276E35C028F09C
:1013BA00296A5DEC04F0370E166E000E176EA6EC65
:1013CA000BF012002E50000AD8B47DD7010AD8B407
:1013DA00A1D7030AD8A41200C4D70F0EC16E000EFB
:1013EA00946E000E486E030E476EE1EC0BF0D0ECE3
:1013FA000BF0D59EF28AF294D59CD596D580D592DB
:10140A00D584D59A000ED76E000ED66ED58EF28E82
:10141A00F28C27EC0CF0315066EC09F0B40E0CECAF
:10142A000CF083A067EF00F0B40E0CEC0CF0000E89
:10143A00326E010E316E315066EC09F083B28BA028
:10144A0004D0B40E0CEC0CF00DD083B48BA204D0F3
:10145A00B40E0CEC0CF006D083B68BA405D0B40EF7
:10146A000CEC0CF0362A04D0B40E0CEC0CF0352A35
:10147A0030BEE4D7305004E1060E2F5CD8A0DED788
:10148A00000E326E020E316E315066EC09F067EFD3
:10149A0000F0196EF00E8116F00E9316939C939A33
:1014AA0093988A9C8A9A8A982EEC0CF0300E4BEC10
:1014BA000BF0050E0CEC0CF0300E4BEC0BF0010EA1
:1014CA000CEC0CF0320E4BEC0BF089EC0BF0000933
:1014DA00D8A4FBD789EC0BF00009D8A4FBD7195084
:1014EA004BEC0BF089EC0BF00009D8A4FBD7080EE3
:1014FA004BEC0BF089EC0BF00009D8A4FBD70F0ECC
:10150A004BEC0BF089EC0BF00009D8A4FBD7010EC9
:10151A004BEC0BF089EC0BF00009D8A4FBD7040EB6
:10152A004BEC0BF089EC0BF00009D8A4FBD7800E2A
:10153A0001EC0BF0120024D0000E346E030E336E51
:10154A00000E486E040E476E8B848B908B921200AD
:10155A00000E346E040E336E000E486E010E476E96
:10156A008B808B948B921200000E346E040E336EB5
:10157A00000E486E020E476E8B828B948B9012007F
:10158A0047C001F048C002F00250000AD8A4120075
:10159A000150010AD8B4D0D7030AD8B4D9D7010A5E
:1015AA00D8A41200E1D7000E1A6E000E196E16505A
:1015BA001710D8B41CD0010E186E04D0D890163665
:1015CA001736182A17AEFAD7D89019361A3616507F
:1015DA00145C17501558D8A005D01650145E175031
:1015EA00155A1980D89017321632182EEDD719C00D
:1015FA0014F01AC015F01200186EF00E9316F00EC1
:10160A0081161850156E166A158E040E176E16344A
:10161A0016321532172EFBD715500F0B81128A9CE2
:10162A008A9A32EC0CF08A8832EC0CF08A98F00E26
:10163A00811618500F0B811232EC0CF08A8832ECAA
:10164A000CF08A980F0E931212001D501E10D8B477
:10165A0018D0010E1F6E04D0D8901D361E361F2AD0
:10166A001EAEFAD71D501B5C1E501C58D8A004D0C1
:10167A001D501B5E1E501C5AD8901E321D321F2E42
:10168A00F1D71BC01BF01CC01CF01200156EF00E27
:10169A009316F00E811615380F0B0F0B81128A9CC8
:1016AA008A9A32EC0CF08A8832EC0CF08A98F00EA6
:1016BA00811615500F0B811232EC0CF08A8832EC2D
:1016CA000CF08A980F0E93121200156EF00E9316F4
:1016DA00F00E811615380F0B0F0B81128A8A8A9C1D
:1016EA0032EC0CF08A8832EC0CF08A98F00E8116F3
:1016FA0015500F0B811232EC0CF08A8832EC0CF088
:10170A008A980F0E931212008A8C8A9A32EC0CF085
:10171A008A8832EC0CF081A60AD08A9832EC0CF056
:10172A008A8832EC0CF08A988A9C010E12008A98F8
:10173A0032EC0CF08A8832EC0CF08A988A9C000E03
:10174A0012000ED089EC0BF00009D8A4FBD716C002
:10175A00D9FF17C0DAFFDF506AEC0BF0164A172AD6
:10176A0016C0D9FF17C0DAFFDF50D8B41200EAD783
:10177A0014501602F3CF18F0F4CF19F014501702D0
:10178A00F350192615501602F350192618C014F0F2
:10179A0019C015F01200D59EF28AF294D59CD596FE
:1017AA00D590D582D584D59A000ED76E000ED66E06
:1017BA00D58EF28EF28C1200280E4EEC0AF089ECCD
:1017CA000BF00009D8A4FBD7060E4BEC0BF00C0E5D
:1017DA004BEC0BF01200166E000E156E3A0E1660E8
:1017EA0005D02F0E166402D0010E156E15C014F026
:1017FA001430120000EE2FF0180EEE6AE806FDE132
:10180A0049904992000EF86E0001F2EF09F0156E48
:10181A000D0E146EFC0EE82EFED7142EFCD7152ED4
:10182A00F7D71200146EC80E00D0E82EFDD7142E7A
:10183A00FAD71200146E030EE82EFED700F0142E0B
:10184A00FAD7120094908B9094928B9294948B94E2
:10185A001200B40E17EC0CF01200780E1FEC0CF00C
:02186A0012006A
:020000040020DA
:08000000FFFFFFFFFFFFFFFF00
:020000040030CA
:0E00000000051F1EFF8185FF0FC00FE00F409F
:00000001FF
