:0400000007EF00F016
:0A0008004E8287ED10F0C8EF12F0F1
:1008000000010000000A00000064000000E803008E
:100810000010270000A086010040420F008096983B
:100820000000E1F50500CA9A3B00803F002041002E
:10083000C842007A44401C4650C347247449971864
:100840004BBCBE4C6B6E4E03155079AD60F34971D5
:1008500000803FCDCC3DD7233C12833AB7D138C678
:100860002737388635C0D633CC2B32708930E7DB5A
:100870002EE53C1E42A20D4D656469646F722064D2
:10088000652074656D706572617475726100546580
:0B0890006D703A00252E326643000018
:10089C00640E0001706F000E0001716FDED3250E27
:1008AC0000018319D8B407D060C0D9FF61C0DAFF4A
:1008BC0083C0DFFFCFD3000E0001736F000E726F89
:1008CC0062C0F6FF63C0F7FF0800F5502E0AD8A4EB
:1008DC0034D00001738D0001624B632B000E0001BC
:1008EC007F6F000E7E6F1ED07EC01DF07FC01EF08D
:1008FC00000E206E0A0E1F6E62EC12F062C0F6FF44
:10090C0063C0F7FF0800F5501D26000E1E22D00E06
:10091C001D2400017E6FFF0E1E2000017F6F000161
:10092C00624B632B62C0F6FF63C0F7FF0800F55003
:10093C00B9EC12F0D8A00CD0D7D7000E00017F6F05
:10094C00000E7E6F0001738903D00001738513D0F4
:10095C0062C0F6FF63C0F7FF0001624B632B080017
:10096C00F5CF83F000018351000AD8B484D3660A12
:10097C00D8B4EBD772D3070E00017315D8B415D3C6
:10098C00000173A905D0000E00017F6F060E7E6F6B
:10099C0070C0D9FF71C0DAFFDECF80F0DECF81F0FE
:1009AC00DDCF82F0030E00017027000E71230001D1
:1009BC0082AF11D080C00FF081C010F082C011F056
:1009CC0075EC12F00FC080F010C081F011C082F0F5
:1009DC00030E00017213000E0001796F000E786F88
:1009EC00000180510001811100018211D8B491D015
:1009FC00820E0001676FFF0E0001686F80C069F006
:100A0C0081C06AF082C06BF083C06CF0100E06D00F
:100A1C000001D8906C336B336A336933E82EF8D706
:100A2C0000016951000167250001786F000E00017B
:100A3C0068210001796F00017807D8A0790778C088
:100A4C001DF079C01EF0000E206E030E1F6E62ECBE
:100A5C0012F01DC078F01EC079F078C015F079C086
:100A6C0016F0000E186E0A0E176E04EC10F015C07E
:100A7C0078F016C079F0000179AF04D00001780746
:100A8C00D8A0790700017851000848EC08F032C072
:100A9C007AF033C07BF034C07CF07AC023F07BC09A
:100AAC0024F07CC025F080C026F081C027F082C0E5
:100ABC0028F066EC0DF023C07AF024C07BF025C042
:100ACC007CF07AC00FF07BC010F07CC011F0000EEF
:100ADC00126E800E136E3F0E146E76EC0FF0D8B0C3
:100AEC0005D000017807D8A0790713D07AC00FF091
:100AFC007BC010F07CC011F0000E126E200E136E35
:100B0C00410E146E76EC0FF0D8A003D00001784B98
:100B1C00792B00017FBF08D000017F511DE10D0E24
:100B2C0000017E5DD8B018D080C03CF081C03DF093
:100B3C0082C03EF000017E5140EC0AF032C03FF022
:100B4C0033C040F034C041F063EC0BF03CC080F09B
:100B5C003DC081F03EC082F0000179BF08D0000199
:100B6C00795126E10A0E0001785DD8B021D0000140
:100B7C0080510001811100018211D8B45BD080C07A
:100B8C0039F081C03AF082C03BF0E0EC0DF0395006
:100B9C003A103B103C10D8A44DD0000179BF4AD07C
:100BAC000001795105E1020E0001785DD8A042D018
:100BBC007AC00FF07BC010F07CC011F0700E126E7A
:100BCC00890E136E400E146E76EC0FF0D8B003D075
:100BDC000001F70E02D00001F80E7827FF0E7923E2
:100BEC000001785148EC08F032C07AF033C07BF049
:100BFC0034C07CF080C00FF081C010F082C011F0C6
:100C0C007AC012F07BC013F07CC014F039EC0CF0FD
:100C1C000FC074F010C075F011C076F012C077F0F0
:100C2C00000E0001806F000E0001816F000E0001AC
:100C3C00826F33D080C039F081C03AF082C03BF073
:100C4C00E0EC0DF039C074F03AC075F03BC076F0B2
:100C5C003CC077F080C048F081C049F082C04AF0B7
:100C6C0074C017F075C018F076C019F077C01AF080
:100C7C0062EC11F017C04BF018C04CF019C04DF0DD
:100C8C00E7EC11F048C080F049C081F04AC082F016
:100C9C00000E0001796F000E786F010E0001836F5A
:100CAC000A0E00018319D8B41ED000018351040D23
:100CBC00010EF324F66E080EF420F76E0900F550C1
:100CCC000001745D0900F550000175590900F550DB
:100CDC00000176590900F55000017759D8A003D0CE
:100CEC000001832BDDD7030E000172150001676F25
:100CFC00000E000173150001686F000167510001BF
:100D0C006811D8B454D060C0D9FF61C0DAFF2D0E81
:100D1C004CD00001604B612B4AD074C00FF075C0F1
:100D2C0010F076C011F077C012F000018351040D61
:100D3C00010EF324F66E080EF420F76E0900F5CFC1
:100D4C0013F00900F5CF14F00900F5CF15F00A00E7
:100D5C00F5CF16F046EC10F00FC07AF010C07BF017
:100D6C0011C07CF012C07DF07AC00FF07BC010F087
:100D7C007CC011F07DC012F00A0E136E000E146EC2
:100D8C00000E156E000E166E00EC11F00FC07AF00E
:100D9C0010C07BF011C07CF012C07DF000017A51C4
:100DAC00300F60C0D9FF61C0DAFFDF6EB2D700012F
:100DBC00830700018329D8B40ED0AFD760C0D9FF08
:100DCC0061C0DAFF300EDF6E0001604B612B000159
:100DDC007807D8A07907000179BF07D000017951B5
:100DEC00EDE100017805D8B0E9D700017FBF0CD048
:100DFC0000017F5105E1090E00017E5DD8A004D0F1
:100E0C00080E0001836F02D07EC083F00001835175
:100E1C0000017E5F000E000183BFFF0E00017F5BAF
:100E2C00000183510001D8B409D060C0D9FF61C062
:100E3C00DAFF2E0EDF6E0001604B612B0001835137
:100E4C0048EC08F032C06DF033C06EF034C06FF077
:100E5C0080C026F081C027F082C028F06DC023F03E
:100E6C006EC024F06FC025F066EC0DF023C039F095
:100E7C0024C03AF025C03BF0E0EC0DF039C074F022
:100E8C003AC075F03BC076F03CC077F073D074C0BC
:100E9C000FF075C010F076C011F077C012F00001A1
:100EAC008351040D010EF324F66E080EF420F76E38
:100EBC000900F5CF13F00900F5CF14F00900F5CFB8
:100ECC0015F00A00F5CF16F046EC10F00FC07AF0D2
:100EDC0010C07BF011C07CF012C07DF07AC00FF016
:100EEC007BC010F07CC011F07DC012F00A0E136EA6
:100EFC00000E146E000E156E000E166E00EC11F046
:100F0C000FC07AF010C07BF011C07CF012C07DF0E5
:100F1C0000017A51300F60C0D9FF61C0DAFFDF6E7B
:100F2C000001604B612B74C00FF075C010F076C0DF
:100F3C0011F077C012F000018351040D010EF3245F
:100F4C00F66E080EF420F76E0900F5CF13F00900C9
:100F5C00F5CF14F00900F5CF15F00A00F5CF16F017
:100F6C0000EC11F00FC074F010C075F011C076F0E9
:100F7C0012C077F00001830700018329D8B40ED08A
:100F8C0086D760C0D9FF61C0DAFF300EDF6E00017A
:100F9C00604B612B00017E07D8A07F0700017E51BA
:100FAC0000017F11D8B459D0ECD700017E5100015B
:100FBC007F11D8A40DD000017451000175110001EE
:100FCC00761100017711D8A403D000017E4B7F2B42
:100FDC00800E000183BF7F0E0001676F00017E5100
:100FEC000001835D00017F51800A00016759D8B070
:100FFC0003D07EC083F018D000017F51800A00011D
:10100C00676F0001835100017E5D800E000183BF7C
:10101C007F0E00016759D8B007D000018351000141
:10102C007E6F7F6B7EBF7F07030E00017215000180
:10103C00676F000E000173150001686F00016751A6
:10104C0000016811D8B409D060C0D9FF61C0DAFFC3
:10105C002D0EDF6E0001604B612B62C0F6FF63C08A
:10106C00F7FF0001624B632B0800F5CF83F0000102
:10107C008351D8A414D460C0D9FF61C0DAFF000E2C
:10108C00DF6E1200386E38AEFBD0386C3850800AE8
:10109C00120FD8A091D0000E206E030E1F6E000E02
:1010AC00186E0A0E176E000E126E640E116E38500A
:1010BC000F6E106A0FBE1006C8EC10F00FC015F0C2
:1010CC0010C016F004EC10F0090E15241D6E000E65
:1010DC0016201E6E62EC12F0500E1D24F66E080ED9
:1010EC001E20F76E0900F5CF26F00900F5CF27F08A
:1010FC000A00F5CF28F0000E186E640E176E3850EB
:10110C00156E166A15BE160604EC10F0120E152498
:10111C001D6E000E16201E6E000E206E030E1F6E2E
:10112C0062EC12F0500E1D24F66E080E1E20F76EA7
:10113C000900F5CF23F00900F5CF24F00A00F5CF14
:10114C0025F066EC0DF023C035F024C036F025C038
:10115C0037F035C023F036C024F037C025F0000E30
:10116C00206E030E1F6E000E126E0A0E116E38509A
:10117C000F6E106A0FBE1006C8EC10F00FC01DF0F9
:10118C0010C01EF062EC12F0500E1D24F66E080E0C
:10119C001E20F76E0900F5CF26F00900F5CF27F0D9
:1011AC000A00F5CF28F066EC0DF023C032F024C015
:1011BC0033F025C034F012003850800A750FD8A0D7
:1011CC004DD0000E186E0A0E176E3850156E166A3A
:1011DC0015BE160604EC10F0090E15241D6E000E3B
:1011EC0016201E6E000E206E030E1F6E62EC12F0A7
:1011FC00500E1D24F66E080E1E20F76E0900F5CF5A
:10120C0023F00900F5CF24F00A00F5CF25F0000EED
:10121C00206E030E1F6E000E126E0A0E116E3850E9
:10122C000F6E106A0FBE1006C8EC10F00FC01DF048
:10123C0010C01EF062EC12F0500E1D24F66E080E5B
:10124C001E20F76E0900F5CF26F00900F5CF27F028
:10125C000A00F5CF28F066EC0DF0A7D73850030D37
:10126C00500EF324F66E080EF420F76E0900F5CF3D
:10127C0032F00900F5CF33F00A00F5CF34F012004C
:10128C003850800A120FD8A091D0000E206E030E99
:10129C001F6E000E186E0A0E176E000E126E640E84
:1012AC00116E38500F6E106A0FBE1006C8EC10F09D
:1012BC000FC015F010C016F004EC10F0090E152438
:1012CC001D6E000E16201E6E62EC12F0290E1D24EF
:1012DC00F66E080E1E20F76E0900F5CF26F00900F9
:1012EC00F5CF27F00A00F5CF28F0000E186E640E2B
:1012FC00176E3850156E166A15BE160604EC10F0F3
:10130C00120E15241D6E000E16201E6E000E206E81
:10131C00030E1F6E62EC12F0290E1D24F66E080EE1
:10132C001E20F76E0900F5CF23F00900F5CF24F04D
:10133C000A00F5CF25F066EC0DF023C035F024C083
:10134C0036F025C037F035C023F036C024F037C056
:10135C0025F0000E206E030E1F6E000E126E0A0E8C
:10136C00116E38500F6E106A0FBE1006C8EC10F0DC
:10137C000FC01DF010C01EF062EC12F0290E1D24DF
:10138C00F66E080E1E20F76E0900F5CF26F0090048
:10139C00F5CF27F00A00F5CF28F066EC0DF023C04E
:1013AC0032F024C033F025C034F012003850800ADB
:1013BC00750FD8A04DD0000E186E0A0E176E38504F
:1013CC00156E166A15BE160604EC10F0090E1524DF
:1013DC001D6E000E16201E6E000E206E030E1F6E6C
:1013EC0062EC12F0290E1D24F66E080E1E20F76E0C
:1013FC000900F5CF23F00900F5CF24F00A00F5CF52
:10140C0025F0000E206E030E1F6E000E126E0A0EDB
:10141C00116E38500F6E106A0FBE1006C8EC10F02B
:10142C000FC01DF010C01EF062EC12F0290E1D242E
:10143C00F66E080E1E20F76E0900F5CF26F0090097
:10144C00F5CF27F00A00F5CF28F066EC0DF0A7D702
:10145C003850030D290EF324F66E080EF420F76EA7
:10146C000900F5CF32F00900F5CF33F00A00F5CFC3
:10147C0034F012003B6E6D0E3B649FD0000E206E5C
:10148C00030E1F6E000E186E0A0E176E000E126EF3
:10149C00640E116E3BC00FF0106AC8EC10F00FC058
:1014AC0015F010C016F004EC10F0090E15241D6E8A
:1014BC00000E16201E6E62EC12F0500E1D24F66EFD
:1014CC00080E1E20F76E0900F5CF26F00900F5CFA7
:1014DC0027F00A00F5CF28F0000E186E640E176E78
:1014EC003BC015F0166A04EC10F0120E15241D6E9C
:1014FC00000E16201E6E000E206E030E1F6E62EC88
:10150C0012F0500E1D24F66E080E1E20F76E090008
:10151C00F5CF23F00900F5CF24F00A00F5CF25F024
:10152C0066EC0DF023C038F024C039F025C03AF039
:10153C00000E206E030E1F6E000E126E0A0E116E40
:10154C003BC00FF0106AC8EC10F00FC01DF010C0BB
:10155C001EF062EC12F0500E1D24F66E080E1E20CA
:10156C00F76E0900F5CF26F00900F5CF27F00A0039
:10157C00F5CF28F038C023F039C024F03AC025F05C
:10158C0066EC0DF023C035F024C036F025C037F0E2
:10159C0035C023F036C024F037C025F0000E266E7F
:1015AC00000E276E3F0E286E66EC0DF023C032F055
:1015BC0024C033F025C034F012000A0E3B645DD019
:1015CC00000E206E030E1F6E000E126E0A0E116EB0
:1015DC003BC00FF0106AC8EC10F00FC01DF010C02B
:1015EC001EF062EC12F0500E1D24F66E080E1E203A
:1015FC00F76E0900F5CF26F00900F5CF27F00A00A9
:10160C00F5CF28F0000E186E0A0E176E3BC015F0C1
:10161C00166A04EC10F0090E15241D6E000E16202F
:10162C001E6E000E206E030E1F6E62EC12F0500E3A
:10163C001D24F66E080E1E20F76E0900F5CF23F060
:10164C000900F5CF24F00A00F5CF25F066EC0DF07B
:10165C0023C038F024C039F025C03AF038C023F04C
:10166C0039C024F03AC025F0000E266E000E276E0D
:10167C003F0E286E66EC0DF099D73B50030D500EC3
:10168C00F324F66E080EF420F76E0900F5CF23F064
:10169C000900F5CF24F00A00F5CF25F0000E266ED8
:1016AC00000E276E3F0E286E66EC0DF023C032F054
:1016BC0024C033F025C034F012003EC042F0436A1F
:1016CC00446A3D34423601E343804250476E41C088
:1016DC0042F0436A446A4034423601E3438042504C
:1016EC00466E4750D8B40BD04650475CD8B00ED09D
:1016FC00475000084624426E180E426407D03FC083
:10170C003CF040C03DF041C03EF012004650D8B411
:10171C000BD04750465CD8B00ED04650000847243A
:10172C00426E180E426407D03CC03CF03DC03DF008
:10173C003EC03EF01200060E456E3EBE458E41BECA
:10174C00458C3D8EFF0E3C16FF0E3D16000E3E16D0
:10175C00408EFF0E3F16FF0E4016000E41164650EF
:10176C00475CD8B01BD0D8903F3640364136460641
:10177C0047504618D8B40DD0450645C042F0070E68
:10178C004216D8B406D0EFD7D8903E323D323C3218
:10179C00472A46504718D8B41FD0F6D74750465C56
:1017AC00D8B01AD0D8903C363D363E364706475016
:1017BC004618D8B40DD0450645C042F0070E421667
:1017CC00D8B406D0EFD7D890413240323F32462AB7
:1017DC0046504718D8A4F7D745AE0CD0FF0E3C1A8C
:1017EC00FF0E3D1AFF0E3E1A010E3C26000E3D2246
:1017FC00000E3E2245AC0CD0FF0E3F1AFF0E401AD5
:10180C00FF0E411A010E3F26000E4022000E41220F
:10181C00000E456E3C503F263D5040223E5041222A
:10182C0041AE0ED0FF0E3F1AFF0E401AFF0E411AAA
:10183C00010E3F26000E4022000E4122010E456E85
:10184C003FC00FF040C010F041C011F047C012F083
:10185C0045C013F0CDEC0EF00FC03CF010C03DF0C5
:10186C0011C03EF0120011C015F0166A176A103440
:10187C00153601E3168015501D6E1D50D8A409D0E5
:10188C00000E0F6E000E106E000E116E000E126E1A
:10189C00120014C015F0166A176A1334153601E3DA
:1018AC00168015501C6E1C50D8A409D0000E0F6E5B
:1018BC00000E106E000E116E000E126E1200108EC5
:1018CC00FF0E0F16FF0E1016000E1116138EFF0EC4
:1018DC001216FF0E1316000E1416000E186E000EC4
:1018EC00196E000E1A6E000E1B6E7F0E1D5E1C50C4
:1018FC00980F1D5E180E1C6ED890183619361A36B5
:10190C001B3612500F5C1350105814501158D8A09D
:10191C0007D012500F5E1350105A1450115A1880E1
:10192C00D8900F36103611361C2EE6D71DAE16D0B9
:10193C001D50800A970FD8B009D0000E0F6E000E04
:10194C00106E000E116E000E126E1200D8901B322B
:10195C001A32193218321D3EF9D715D0170E1D64E4
:10196C000FD0000E0F6E000E106E000E116E000EDA
:10197C00126E1200D890183619361A361B361D0600
:10198C001D50D8A4F7D718C00FF019C010F01AC00A
:10199C0011F01BC012F01200113412341A6E1A50CE
:1019AC00D8A409D0000E0F6E000E106E000E116E32
:1019BC00000E126E120014341534196E1950D8A47E
:1019CC0009D0000E0F6E000E106E000E116E000E80
:1019DC00126E1200118EFF0E0F16FF0E1016FF0E58
:1019EC001116000E1216148EFF0E1216FF0E131681
:1019FC00FF0E1416000E1516000E156E000E166E48
:101A0C00000E176E000E186E7F0E1A5E1950A00F86
:101A1C001A5E200E196ED8901536163617361836F3
:101A2C0012500F5C13501058145011581550125876
:101A3C00D8A009D012500F5E1350105A1450115ADE
:101A4C001550125A1580D8900F36103611361236A2
:101A5C00192EE1D71AAE16D01A50800A9F0FD8B0A3
:101A6C0009D0000E0F6E000E106E000E116E000EDF
:101A7C00126E1200D89018321732163215321A3EE6
:101A8C00F9D715D01F0E1A640FD0000E0F6E000E72
:101A9C00106E000E116E000E126E1200D8901536DC
:101AAC001636173618361A061A50D8A4F7D715C09A
:101ABC000FF016C010F017C011F018C012F0120081
:101ACC0025C029F02A6A2B6A2434293601E32A809E
:101ADC0029502C6E2C50D8A407D0000E236E000E6B
:101AEC00246E000E256E120028C029F02A6A2B6A7B
:101AFC002734293601E32A802950316E3150D8A47D
:101B0C0007D0000E236E000E246E000E256E120000
:101B1C0031507B0F2C2625C031F02850311A800E05
:101B2C003116248E278EFF0E2616FF0E2716000E5A
:101B3C002816000E2D6E000E2E6E000E2F6E070E48
:101B4C00306E23A006D026502D2627502E2228504A
:101B5C002F22D890253224322332D890263627369D
:101B6C002836302EEED7090E306E23A006D0265024
:101B7C002D2627502E2228502F22D8902532243261
:101B8C002332D8902F322E322D32302EEED72DC05C
:101B9C000FF02EC010F02FC011F02CC012F031C07D
:101BAC0013F0CDEC0EF00FC023F010C024F011C0D8
:101BBC0025F012003BC03DF03E6A3F6A3A343D3698
:101BCC0001E33E803D50476E4750D8A409D0000E2B
:101BDC00396E000E3A6E000E3B6E000E3C6E12001B
:101BEC00170E3D6E39C03EF03AC03FF03BC040F09E
:101BFC003D28416E04D0D89040323F323E32412EC7
:101C0C00FAD73E50426E3A8EFF0E3916FF0E3A1638
:101C1C00000E3B163950436E3A50446E3B50456EA5
:101C2C00466A8E0E475E47AE16D04750800A8F0F1D
:101C3C00D8B009D0000E396E000E3A6E000E3B6E15
:101C4C00000E3C6E1200D89046324532443243327C
:101C5C00473EF9D715D0170E47640FD0000E396EDA
:101C6C00000E3A6E000E3B6E000E3C6E1200D890C9
:101C7C00433644364536463647064750D8A4F7D740
:101C8C004250D8B408D0461E451E441E436C000E6C
:101C9C0044224522462243C039F044C03AF045C0A4
:101CAC003BF046C03CF0120034C038F0396A3A6A56
:101CBC003334383601E3398038503F6E3F50D8A466
:101CCC0007D0000E326E000E336E000E346E120012
:101CDC0037C038F0396A3A6A3634383601E339801D
:101CEC003850406E4050D8A407D0000E326E000E13
:101CFC00336E000E346E1200000E3C6E000E3D6E04
:101D0C00000E3E6E4050890F3F5E34C040F037509D
:101D1C00401A800E4016338EFF0E3216FF0E33160D
:101D2C00000E3416368EFF0E3516FF0E3616000ECC
:101D3C003716180E3B6ED8903C363D363E36355035
:101D4C00325C3650335837503458D8A007D0355001
:101D5C00325E3650335A3750345A3C80D890323633
:101D6C00333634363B2EE7D73CC00FF03DC010F075
:101D7C003EC011F03FC012F040C013F0CDEC0EF09D
:101D8C000FC032F010C033F011C034F012001250FA
:101D9C00D8B405D00F5010101110D8A40CD0000ED0
:101DAC000F6E000E106E000E116E1200122AD890DB
:101DBC00113210320F32000E0F14146E000E10146C
:101DCC00156EFE0E1114166E145015101610D8B494
:101DDC000CD0ECD7122A010E0F26000E1022000E8A
:101DEC001122D890113210320F32000E0F14146ED3
:101DFC00000E1014156EFF0E1114166E14501510E3
:101E0C001610D8B406D0E6D71206D8900F36103676
:101E1C00113610BE03D0020E1260F6D712A0109E1F
:101E2C00D8901232125011121350D8A4118E0FC028
:101E3C000FF010C010F011C011F01200146EF00E63
:101E4C008116F00E9316939C939A93988A9C8A9A77
:101E5C008A9804EC13F0300E07EC12F0050ED5EC5A
:101E6C0012F0300E07EC12F0010ED5EC12F0320E1F
:101E7C0007EC12F045EC12F00009D8A4FBD745ECA6
:101E8C0012F00009D8A4FBD7145007EC12F045EC63
:101E9C0012F00009D8A4FBD7080E07EC12F045ECA1
:101EAC0012F00009D8A4FBD70F0E07EC12F045EC8A
:101EBC0012F00009D8A4FBD7010E07EC12F045EC88
:101ECC0012F00009D8A4FBD7040E07EC12F045EC75
:101EDC0012F00009D8A4FBD7800EBEEC11F0120052
:101EEC0011AE16D00FC015F010C016F011C017F0BF
:101EFC00151E161E171E152A000E16221722000E6E
:101F0C0015240F6E000E1620106E800E1720116E09
:101F1C0014AE16D012C015F013C016F014C017F082
:101F2C00151E161E171E152A000E16221722000E3D
:101F3C001524126E000E1620136E800E1720146ED0
:101F4C00000E0F1A000E101A800E111A000E121A23
:101F5C00000E131A800E141A12500F5C13501058E6
:101F6C0014501158D8B002D0D8901200D88012005A
:101F7C00000E266EFA0E276E430E286EC3CF17F096
:101F8C00C4CF18F087EC12F017C023F018C024F05F
:101F9C0019C025F066EC0DF023C032F024C033F0EC
:101FAC0025C034F0000E356E800E366E440E376E42
:101FBC005AEC0EF032C084F033C085F034C086F099
:101FCC00880E0001606F000E0001616F940E00011D
:101FDC00626F080E0001636F84C064F085C065F009
:101FEC0086C066F04EEC04F0400EBEEC11F0880E8C
:101FFC00116E000E126E90EC11F01200000E1A6EA3
:10200C0018AE06D0176C181ED8B0182A010E1A6E0E
:10201C0016AE06D0156C161ED8B0162A010E1A1A5A
:10202C00000E1C6E000E1B6E17501810D8B41CD06E
:10203C00010E196E04D0D89017361836192A18AE1E
:10204C00FAD7D8901B361C361750155C18501658FA
:10205C00D8A005D01750155E1850165A1B80D89072
:10206C0018321732192EEDD71A50D8B404D01B6C75
:10207C001C1ED8B01C2A1BC015F01CC016F0120078
:10208C00000E176E000E186E000E196E000E1A6EF2
:10209C001350141015101610D8B42AD0010E1B6E44
:1020AC0006D0D89013361436153616361B2A16AEB3
:1020BC00F8D7D8901736183619361A3613500F5CD5
:1020CC00145010581550115816501258D8A009D049
:1020DC0013500F5E1450105A1550115A1650125AB4
:1020EC001780D89016321532143213321B2EE1D7CA
:1020FC0017C00FF018C010F019C011F01AC012F070
:10210C0012000600FACF01F0FBCF02F0E9CF03F08A
:10211C00EACF04F0E1CF05F0E2CF06F0D9CF07F01B
:10212C00DACF08F0F3CF09F0F4CF0AF0F6CF0BF0CA
:10213C00F7CF0CF0F8CF0DF0F5CF0EF09EAC04D02D
:10214C00010E0001876F9E9C0EC0F5FF0DC0F8FFBD
:10215C000CC0F7FF0BC0F6FF0AC0F4FF09C0F3FF79
:10216C0008C0DAFF07C0D9FF06C0E2FF05C0E1FFD7
:10217C0004C0EAFF03C0E9FF02C0FBFF01C0FAFF85
:10218C004E921100000E146E10AE06D00F6C101E85
:10219C00D8B0102A010E146E12AE04D0116C121E9F
:1021AC00D8B0122A11501210D8B418D0010E136ED8
:1021BC0004D0D89011361236132A12AEFAD7115019
:1021CC000F5C12501058D8A004D011500F5E125052
:1021DC00105AD89012321132132EF1D71450D8B4A1
:1021EC0004D00F6C101ED8B0102A0FC00FF010C006
:1021FC0010F012001350141015101610D8B424D06F
:10220C00010E176E06D0D8901336143615361636C6
:10221C00172A16AEF8D713500F5C145010581550DF
:10222C00115816501258D8A008D013500F5E1450E5
:10223C00105A1550115A1650125AD890163215328F
:10224C0014321332172EE7D70FC00FF010C010F056
:10225C0011C011F012C012F01200AAEC12F099EC9D
:10226C0012F0E0EC12F0D59EF28AF294D59CD59641
:10227C00D580D592D584D59A000ED76E000ED66E29
:10228C00D58EF28EF28C9D8C000EBEEC11F0EAEC29
:10229C0012F000018705D8A4FAD7BEEC0FF0000E9F
:1022AC000001876F100EBEEC11F0770E116E080E48
:1022BC00126E90EC11F0EBD78E0E1F6E06D0D890EC
:1022CC001A321932183217321F2A000E17141B6ECD
:1022DC00000E18141C6E000E19141D6EFF0E1A142D
:1022EC001E6E1B501C101D101E10D8A4E8D717C052
:1022FC000FF018C010F019C011F01FC012F0000E32
:10230C00136ECDEC0EF00FC017F010C018F011C00A
:10231C0019F0120019D045EC12F00009D8A4FBD723
:10232C0011C0F6FF12C0F7FFF86A070EF76403D06E
:10233C000800F55005D0F6CFE9FFF7CFEAFFEF50D4
:10234C0026EC12F0114A122A11C0F6FF12C0F7FF48
:10235C00F86A070EF76403D00800F55005D0F6CFE5
:10236C00E9FFF7CFEAFFEF500009D8B41200D3D73A
:10237C00136EF00E9316F00E81161350106E116A38
:10238C00108E040E126E113411321032122EFBD735
:10239C0010500F0B81128A9C8A9A08EC13F08A88D1
:1023AC0008EC13F08A98F00E811613500F0B811263
:1023BC0008EC13F08A8808EC13F08A980F0E93122D
:1023CC0012004B504C104D10D8B406D0000E4B1AC6
:1023DC00000E4C1A800E4D1A48C03CF049C03DF01E
:1023EC004AC03EF04BC03FF04CC040F04DC041F0F5
:1023FC0063EC0BF03CC048F03DC049F03EC04AF0E5
:10240C001200106EF00E9316F00E811610380F0B92
:10241C000F0B81128A9C8A9A08EC13F08A8808ECBC
:10242C0013F08A98F00E811610500F0B811208ECE5
:10243C0013F08A8808EC13F08A980F0E931212008E
:10244C00106EF00E9316F00E811610380F0B0F0B4A
:10245C0081128A8A8A9C08EC13F08A8808EC13F0A3
:10246C008A98F00E811610500F0B811208EC13F0A5
:10247C008A8808EC13F08A980F0E931212008A8C3B
:10248C008A9A08EC13F08A8808EC13F081A60AD01B
:10249C008A9808EC13F08A8808EC13F08A988A9CC6
:1024AC00010E12008A9808EC13F08A8808EC13F0DD
:1024BC008A988A9C000E12001D501F02F3CF21F047
:1024CC00F4CF22F01D502002F35022261E501F0282
:1024DC00F350222621C01DF022C01EF012000F5016
:1024EC0010101110D8B406D0000E0F1A000E101ACE
:1024FC00800E111A0FC00FF010C010F011C011F0A7
:10250C00120017C00FF018C010F0116A8E0E126E68
:10251C00000E136ECDEC0EF00FC017F010C018F0BB
:10252C0011C019F01200D59EF28AF294D59CD59662
:10253C00D590D582D584D59A000ED76E000ED66E66
:10254C00D58EF28EF28C1200280E24EC0FF045EC96
:10255C0012F00009D8A4FBD7060E07EC12F00C0EF3
:10256C0007EC12F01200116E000E106E3A0E116094
:10257C0005D02F0E116402D0010E106E10C00FF09A
:10258C000F30120000EE84F0140EEE6AE806FDE146
:10259C004E904E92000EF86E000133EF11F0106E5B
:1025AC000D0E0F6EFC0EE82EFED70F2EFCD7102E44
:1025BC00F7D71200000EBEEC11F08E0E116E080E45
:1025CC00126E90EC11F01200000EC26E0E0EC16E67
:1025DC009E0EC06EC28000D0C28212000F6EC80E5A
:1025EC0000D0E82EFDD70F2EFAD712000F6E030E77
:1025FC00E82EFED700F00F2EFAD71200B40EF4EC32
:0C260C0012F01200780EFCEC12F012002C
:020000040020DA
:08000000FFFFFFFFFFFFFFFF00
:020000040030CA
:0E00000000051F1EFF8185FF0FC00FE00F409F
:00000001FF
